S00D000074657374312E7372656326
S11300000C9472000C9493000C9493000C94930041
S11300100C9493000C9493000C9493000C94930010
S11300200C9493000C9493000C9493000C94930000
S11300300C9493000C9493000C9493000C949300F0
S11300400C9493000C9493000C9493000C949300E0
S11300500C9493000C9493000C9493000C949300D0
S11300600C9493000C9493000C9493000C949300C0
S11300700C9493000C9493000C9493000C949300B0
S11300800C9493000C9493000C9493000C949300A0
S11300900C9493000C9493000C9493000C94930090
S11300A00C9493000C9493000C9493000C94930080
S11300B00C9493000C9493000C9493000C94930070
S11300C00C9493000C9493000C9493000C94930060
S11300D00C9493000C9493000C9493000C94930050
S11300E00C94930011241FBECFEFD1E2DEBFCDBF2D
S11300F000E00CBF12E0A0E0B2E0E0E9F7E000E0CD
S11301000BBF02C007900D92AE30B107D9F722E0C1
S1130110AEE0B2E001C01D92AC31B207E1F70E943B
S11301206D030C94C6030C94000086E69EE00197D0
S1130130F1F700004098419880E388B9429A8FEF24
S113014097E40197F1F700C00000429886E69EE02C
S11301500197F1F700004098419880E388B9429AEA
S11301608FEF97E40197F1F700C00000429886E60C
S11301709EE00197F1F700004098419880E388B928
S1130180429A8FEF97E40197F1F700C0000042987C
S113019086E69EE00197F1F700004098419880E2DE
S11301A088B9429A8FEF97E40197F1F700C00000F5
S11301B04298089598B19F7098B998B1282F207FDC
S11301C0922B98B940984198429AEFEFF7E431970F
S11301D0F1F700C00000429898B19F7098B998B1A7
S11301E08295807F892B88B940984198429A8FEFF5
S11301F097E40197F1F700C000004298089586E65D
S11302009EE00197F1F7000088E20E94DA0081E0A5
S11302100E94DA0086E00E94DA008EE00E94DA0092
S113022080E80E94DA00089598B19F7098B998B157
S1130230282F207F922B98B9409A4198429AEFEF49
S1130240F7E43197F1F700C00000429898B19F702D
S113025098B998B18295807F892B88B9409A419842
S1130260429A8FEF97E40197F1F700C0000042989B
S1130270089580E80E94DA000895CF93DF93EC019B
S11302808881882331F021960E941401899181117B
S1130290FBCFDF91CF910895823071F018F4813053
S11302A031F00895833069F0843081F008958FE748
S11302B0860F0E94DA0008958FEB860F0E94DA0001
S11302C0089583E9860F0E94DA00089583ED860F6E
S11302D00E94DA0008950F931F93CF93DF938A014E
S11302E0E901882311F0611103C00E94390102C0A1
S11302F00E944C01C530D10509F0DBC0980132954C
S113030022952F7023273F702327A7E4B3E00E9490
S1130310B703969587959695879596958795C096F4
S113032090930F0280930E020E9414019801369557
S113033027953695279536952795A5ECB0E20E942A
S1130340B703AC01529542954F7045275F7045271E
S113035050931102409310029A01ADECBCEC0E9440
S1130360B7039695879596958795969587959C015D
S1130370220F331F880F991F880F991F880F991F09
S1130380820F931F481B590BCA01C09690931B02FE
S113039080931A020E94140104C0C330D10509F0ED
S11303A08DC098013695279536952795ABE7B4E12E
S11303B00E94B703AC0156954795509311024093A0
S11303C010029A01ADECBCEC0E94B7039695879598
S11303D096958795969587959C01220F331F880FD4
S11303E0991F880F991F880F991F820F931F481B0D
S11303F0590BCA01C09690931702809316020E946B
S113040014019801ADECBCEC0E94B703AC01569505
S113041047955695479556954795509311024093A5
S113042010029A010E94B703969587959695879531
S1130430969587959C01220F331F880F991F880F6B
S1130440991F880F991F820F931F481B590BCA01CC
S1130450C09690931502809314020E94140103C065
S1130460C130D10501F59801ADECBCEC0E94B70395
S11304709695879596958795969587959C01220FD5
S1130480331F880F991F880F991F880F991F820F98
S1130490931F081B190BC801C096909319028093EF
S11304A018020E94140126976CF085E40E9414013E
S11304B009C0C430D10509F070CF38CFC230D1059E
S11304C079F69FCFDF91CF911F910F91089581E02D
S11304D00E94DA00089587B1876F87B988B1807860
S11304E088B90895ECEBF0E0108280E18093B800C5
S11304F01092B9001092BA0084E08083089594EABF
S11305009093BC00ECEBF0E090819923ECF7EFEFD3
S1130510FFE83197F1F700C0000096EA9093BB0022
S113052094E89093BC00ECEBF0E090819923ECF715
S1130530EFEFFFE83197F1F700C000006093BB00D4
S113054094E89093BC00ECEBF0E090819923ECF7F5
S1130550EFEFFFE83197F1F700C000008093BB0094
S113056084E88093BC00ECEBF0E080818823ECF716
S11305708FEF9FE80197F1F700C0000084E98093B2
S1130580BC00089594EA9093BC00ECEBF0E09081F9
S11305909923ECF7EFEFFFE83197F1F700C0000083
S11305A096EA9093BB0094E89093BC00ECEBF0E0E7
S11305B090819923ECF7EFEFFFE83197F1F700C052
S11305C000008093BB0084E88093BC00ECEBF0E077
S11305D080818823ECF78FEF9FE80197F1F700C043
S11305E0000084EA8093BC00ECEBF0E08081882377
S11305F0ECF7EFEFFFE83197F1F700C0000087EA6E
S11306008093BB0084E88093BC00ECEBF0E0808135
S11306108823ECF78FEF9FE80197F1F700C0000003
S113062084E88093BC00ECEBF0E080818823ECF755
S11306308091BB00EFEFFFE83197F1F700C00000B5
S11306401092BB0094E89093BC00ECEBF0E0908136
S11306509923ECF7EFEFFFE83197F1F700C00000C2
S11306600895F8940E946B020E947202789408958F
S1130670EF92FF920F931F93CF93DF93F82EE62E02
S1130680EA01890141308AEF580790F08F2D0E94CA
S11306904C0189E092E00E943D01442755274C1B00
S11306A05D0B61E06E0D98018F2D0E946B010EC0F1
S11306B08F2D0E944C018BE092E00E943D0161E08D
S11306C06E0D9801AE018F2D0E946B01DF91CF91C9
S11306D01F910F91FF90EF9008950E9431030E94A3
S11306E095000E94FF000E9467026DE280E00E9474
S11306F07F026DE288E00E947F0282E30E94C202D0
S1130700E82E83E30E94C202F82E84E30E94C20210
S1130710082F85E30E94C202182F86E30E94C202BA
S1130720D82F87E30E94C202C82F4E2D50E05F29C4
S113073023E030E061E070E081E090E00E94380363
S1130740402F50E0512B23E030E065E070E082E080
S113075090E00E9438034D2F50E05C2B23E030E002
S11307606AE070E081E090E00E943803C6CFA29F67
S1130770B001B39FC001A39F700D811D1124911D71
S1130780B29F700D811D1124911D0895F894FFCF1F
S111079020203A20203A2020002D002B0000CB
S9030000FC
